{"address":"0x91bDAade19fD91c669fCb3049F2183090160BF6a","bytecode":"0x60a0346200017a57601f6200168638819003918201601f19168301916001600160401b038311848410176200017f578084926060946040528339810103126200017a576200004d8162000195565b906200006a6040620000626020840162000195565b920162000195565b913315620001615760008054336001600160a01b031980831682178455946001600160a01b0394909385939192918416907f8be0079c531659141344cd1fd0a4f28419497f9722a3daafe3b4186f6b6457e09080a360018055620000ce81620001aa565b620000d983620001aa565b620000e486620001aa565b16836002541617600255169060035416176003556080526040516114929081620001f4823960805181818161055b01528181610c0a01528181610c5701528181610ce301528181610d6401528181610dcc01528181610f1f0152818161103901528181611068015281816110a6015281816111b901526111fe0152f35b604051631e4fbdf760e01b815260006004820152602490fd5b600080fd5b634e487b7160e01b600052604160045260246000fd5b51906001600160a01b03821682036200017a57565b6001600160a01b031615620001bb57565b60405162461bcd60e51b815260206004820152601060248201526f564c3a205a65726f206164647265737360801b6044820152606490fdfe608060408181526004908136101561001657600080fd5b600092833560e01c9081633e40277314610993575080633f4ba83a14610925578063551512de1461073d5780635c975abb1461071857806368c4ac26146106da5780636a0706db14610695578063715018a61461063b5780637b04c181146106125780638456cb59146105b357806384fcec461461058a57806389a30271146105465780638da5cb5b1461051e57806396abeb701461047f578063e79864661461041e578063eaf7406a14610205578063f2fde38b1461017e5763fab6f191146100df57600080fd5b3461017a57606036600319011261017a576100f86109d2565b9160243560443592831515918285036101765761016560609563ffffffff7f8a1f9e8da3af8de5c291e7b2a3a16c12eaa44ed6406646df3d2a3007156b3c4898610140611370565b1695868a52602052838920838a526020528389209060ff801983541691151516179055565b81519384526020840152820152a180f35b8680fd5b8280fd5b50903461017a57602036600319011261017a576101996109ea565b906101a2611370565b6001600160a01b039182169283156101ef57505082546001600160a01b0319811683178455167f8be0079c531659141344cd1fd0a4f28419497f9722a3daafe3b4186f6b6457e08380a380f35b51631e4fbdf760e01b8152908101849052602490fd5b50903461017a578160031936011261017a5780359167ffffffffffffffff9081841161041a573660238501121561041a578383013591821161041a576024916024850194602436918360051b010111610416576001600160a01b036024358181169590949186860361041257610279611370565b610284871515610a00565b885b848110610291578980f35b816102a56102a083888d611336565b61135c565b1661030d5760019088888c47806102c2575b505050505b01610286565b6102fe828080602095857f05f271cba6a2c296f81808f68936601d4ea77100ca254faa7e0718d89703b2d9985af16102f8610a98565b50610ac8565b8a51908152a288888c386102b7565b8161031c6102a083888d611336565b16865180916370a0823160e01b82523086830152818760209384935afa918c8315610407578b92868e9695938b93946103c6575b506001968d8786610369575b50505050505050506102bc565b85836103ac896102a095886103a66102a0887f63e54df36d812af3a73b796ff04f96532b66dd57bc342c07744b4dbcd3de700c9e6103b19c611336565b1661139c565b611336565b16928b51908152a388388781868e8d8761035c565b9450508095508092508391503d8311610400575b6103e48183610a44565b810103126103fc578a87600194868d94519396610350565b8b80fd5b503d6103da565b8951903d90823e3d90fd5b8880fd5b8580fd5b8480fd5b83823461047b578060031936011261047b576104386109ea565b906024359081151582036104775761047492610452611370565b60018060a01b03168452600560205283209060ff801983541691151516179055565b80f35b8380fd5b5080fd5b50903461017a57606036600319011261017a5761049a6109d2565b906044359067ffffffffffffffff9485831161051b573660238401121561051b578282013595861161051b57366024878501011161051b575060026001541461050d57509261050091602460209560026001556104f56113df565b019060243590610b28565b9060018055519015158152f35b8351633ee5aeb560e01b8152fd5b80fd5b83823461047b578160031936011261047b57905490516001600160a01b039091168152602090f35b83823461047b578160031936011261047b57517f00000000000000000000000000000000000000000000000000000000000000006001600160a01b03168152602090f35b83823461047b578160031936011261047b5760025490516001600160a01b039091168152602090f35b83823461047b578160031936011261047b5760207f62e78cea01bee320cd4e420270b5ea74000d11b0c9f74754ebdbfc544b05a258916105f1611370565b6105f96113df565b835460ff60a01b1916600160a01b17845551338152a180f35b83823461047b578160031936011261047b5760035490516001600160a01b039091168152602090f35b833461051b578060031936011261051b57610654611370565b80546001600160a01b03198116825581906001600160a01b03167f8be0079c531659141344cd1fd0a4f28419497f9722a3daafe3b4186f6b6457e08280a380f35b833461051b57602036600319011261051b576106af6109ea565b6106b7611370565b60018060a01b03166bffffffffffffffffffffffff60a01b600254161760025580f35b83823461047b57602036600319011261047b5760209160ff9082906001600160a01b036107056109ea565b1681526005855220541690519015158152f35b83823461047b578160031936011261047b5760ff6020925460a01c1690519015158152f35b503461017a57606036600319011261017a576107576109ea565b6044356001600160a01b038181169492939290602435908684036109215761077d611370565b819561078a881515610a00565b16908161082457505047841561081c575b84116107e25750916020916107da86808080867f05f271cba6a2c296f81808f68936601d4ea77100ca254faa7e0718d89703b2d9995af16102f8610a98565b51908152a280f35b606490602084519162461bcd60e51b8352820152601460248201527308aae744092dce6eaccccd2c6d2cadce8408aa8960631b6044820152fd5b93508361079b565b93918295939195516370a0823160e01b8152308282015260209586826024818b5afa918215610917578a926108e4575b50156108dc575b8411610899575090610891837f63e54df36d812af3a73b796ff04f96532b66dd57bc342c07744b4dbcd3de700c9594938761139c565b51908152a380f35b825162461bcd60e51b8152908101859052601760248201527f45573a20496e73756666696369656e7420746f6b656e730000000000000000006044820152606490fd5b93508361085b565b9091508681813d8311610910575b6108fc8183610a44565b8101031261090c57519038610854565b8980fd5b503d6108f2565b85513d8c823e3d90fd5b8780fd5b50903461017a578260031936011261017a5761093f611370565b82549060ff8260a01c1615610985575060ff60a01b19168255513381527f5db9ee0a495bf2e6ff9c91a7834c1ba4fdd244a5e8aa4e537bd38aeae4b073aa90602090a180f35b8251638dfc202b60e01b8152fd5b929050346104775781600319360112610477579060209360ff9263ffffffff6109ba6109d2565b16825285528181206024358252855220541615158152f35b6004359063ffffffff821682036109e557565b600080fd5b600435906001600160a01b03821682036109e557565b15610a0757565b60405162461bcd60e51b81526020600482015260156024820152741155ce88125b9d985b1a59081c9958da5c1a595b9d605a1b6044820152606490fd5b90601f8019910116810190811067ffffffffffffffff821117610a6657604052565b634e487b7160e01b600052604160045260246000fd5b67ffffffffffffffff8111610a6657601f01601f191660200190565b3d15610ac3573d90610aa982610a7c565b91610ab76040519384610a44565b82523d6000602084013e565b606090565b15610acf57565b60405162461bcd60e51b815260206004820152601760248201527f45573a20455448207472616e73666572206661696c65640000000000000000006044820152606490fd5b35906001600160a01b03821682036109e557565b91929060018060a01b036003541633036112fb5763ffffffff8316600052600460205260406000209060005260205260ff60406000205416156112c057820160a0838203126109e557610b7a83610b14565b610b8660408501610b14565b91610b9360608601610b14565b94608081013567ffffffffffffffff81116109e557810182601f820112156109e557803590610bc182610a7c565b93610bcf6040519586610a44565b828552602083830101116109e55781600092602080930183870137840101526040516370a0823160e01b8152306004820152916020836024817f00000000000000000000000000000000000000000000000000000000000000006001600160a01b03165afa928315610fc95760009361128c575b508215611254576001600160a01b038481167f00000000000000000000000000000000000000000000000000000000000000009091161461119f576001600160a01b03841660009081526005602052604090205460ff1615611166576001600160a01b0385161561112957600254604051636eb1769f60e11b81523060048201526001600160a01b039182166024820181905291602090829060449082907f0000000000000000000000000000000000000000000000000000000000000000165afa908115610fc9576000916110f7575b508481018091116110e15760405163095ea7b360e01b60208083019182526001600160a01b0385166024840152604480840194909452928252909190600090610d5e606485610a44565b835190827f00000000000000000000000000000000000000000000000000000000000000006001600160a01b03165af16000513d8261109c575b505015610fee575b50506040519660c0880188811067ffffffffffffffff821117610a665760409081526001600160a01b037f000000000000000000000000000000000000000000000000000000000000000081168a528681166020808c019182528b84018881528782013560608e0190815295841660808e0190815260a08e019788526002549551639d49776160e01b815260048101939093529c518416602483015291518316604482015290516064820152925160848401529851891660a4830152915160c060c4830152805160e483018190529198929092169188919060005b828110610fd557505091816000602094826101049183838284010152601f801991011681010301925af1958615610fc957600096610f94575b50602001358510610f57577f30e4d957923fa299ee90866af59b2de8a5d7000c6af5e4b92269a1e8616af1de91610ef8866001600160a01b0386811690841661139c565b6040805192835260208301969096526001600160a01b0393841695820195909552938216937f00000000000000000000000000000000000000000000000000000000000000009092169263ffffffff169180606081015b0390a4600190565b60405162461bcd60e51b815260206004820152601560248201527415930e8814db1a5c1c1859d948195e18d959591959605a1b6044820152606490fd5b9095506020813d602011610fc1575b81610fb060209383610a44565b810103126109e55751946020610eb4565b3d9150610fa3565b6040513d6000823e3d90fd5b60208282018101516101048d840101528b945001610e7b565b6040519163095ea7b360e01b60208401526024830152600060448301526044825281608081011067ffffffffffffffff608084011117610a66576080820160405261109591611066907f00000000000000000000000000000000000000000000000000000000000000006001600160a01b0316611400565b7f00000000000000000000000000000000000000000000000000000000000000006001600160a01b0316611400565b3880610da0565b9091506110d957507f00000000000000000000000000000000000000000000000000000000000000006001600160a01b03163b15155b3880610d98565b6001146110d2565b634e487b7160e01b600052601160045260246000fd5b90506020813d602011611121575b8161111260209383610a44565b810103126109e5575138610d14565b3d9150611105565b60405162461bcd60e51b815260206004820152601560248201527415930e88125b9d985b1a59081c9958da5c1a595b9d605a1b6044820152606490fd5b60405162461bcd60e51b81526020600482015260116024820152702ab739bab83837b93a32b2103a37b5b2b760791b6044820152606490fd5b509094506111de91508490506001600160a01b03838116907f00000000000000000000000000000000000000000000000000000000000000001661139c565b6040805184815260208101949094526001600160a01b03918216908401527f00000000000000000000000000000000000000000000000000000000000000001691829163ffffffff16907f30e4d957923fa299ee90866af59b2de8a5d7000c6af5e4b92269a1e8616af1de908060608101610f4f565b60405162461bcd60e51b815260206004820152601060248201526f139bc81554d110c81c9958d95a5d995960821b6044820152606490fd5b9092506020813d6020116112b8575b816112a860209383610a44565b810103126109e557519138610c43565b3d915061129b565b60405162461bcd60e51b81526020600482015260136024820152722ab730baba3437b934bd32b21039b2b73232b960691b6044820152606490fd5b60405162461bcd60e51b81526020600482015260136024820152722ab730baba3437b934bd32b21031b0b63632b960691b6044820152606490fd5b91908110156113465760051b0190565b634e487b7160e01b600052603260045260246000fd5b356001600160a01b03811681036109e55790565b6000546001600160a01b0316330361138457565b60405163118cdaa760e01b8152336004820152602490fd5b60405163a9059cbb60e01b60208201526001600160a01b039290921660248301526044808301939093529181526113dd916113d8606483610a44565b611400565b565b60ff60005460a01c166113ee57565b60405163d93c066560e01b8152600490fd5b906000602091828151910182855af115610fc9576000513d61145357506001600160a01b0381163b155b6114315750565b604051635274afe760e01b81526001600160a01b039091166004820152602490fd5b6001141561142a56fea26469706673582212200418e8e47719997cb6c498c939099350d535755dc0c7f5b08eb148877cf42a8f64736f6c63430008160033","abi":[{"inputs":[{"internalType":"address","name":"_swapExecutor","type":"address"},{"internalType":"address","name":"_messageTransmitter","type":"address"},{"internalType":"address","name":"_usdc","type":"address"}],"stateMutability":"nonpayable","type":"constructor"},{"inputs":[],"name":"EnforcedPause","type":"error"},{"inputs":[],"name":"ExpectedPause","type":"error"},{"inputs":[{"internalType":"address","name":"owner","type":"address"}],"name":"OwnableInvalidOwner","type":"error"},{"inputs":[{"internalType":"address","name":"account","type":"address"}],"name":"OwnableUnauthorizedAccount","type":"error"},{"inputs":[],"name":"ReentrancyGuardReentrantCall","type":"error"},{"inputs":[{"internalType":"address","name":"token","type":"address"}],"name":"SafeERC20FailedOperation","type":"error"},{"anonymous":false,"inputs":[{"indexed":false,"internalType":"uint32","name":"domain","type":"uint32"},{"indexed":false,"internalType":"bytes32","name":"sender","type":"bytes32"},{"indexed":false,"internalType":"bool","name":"authorized","type":"bool"}],"name":"AuthorizedSenderUpdated","type":"event"},{"anonymous":false,"inputs":[{"indexed":false,"internalType":"uint256","name":"amount","type":"uint256"},{"indexed":true,"internalType":"address","name":"to","type":"address"}],"name":"EmergencyWithdrawETH","type":"event"},{"anonymous":false,"inputs":[{"indexed":true,"internalType":"address","name":"token","type":"address"},{"indexed":false,"internalType":"uint256","name":"amount","type":"uint256"},{"indexed":true,"internalType":"address","name":"to","type":"address"}],"name":"EmergencyWithdrawToken","type":"event"},{"anonymous":false,"inputs":[{"indexed":true,"internalType":"uint32","name":"sourceDomain","type":"uint32"},{"indexed":true,"internalType":"address","name":"sourceToken","type":"address"},{"indexed":true,"internalType":"address","name":"destToken","type":"address"},{"indexed":false,"internalType":"uint256","name":"amountIn","type":"uint256"},{"indexed":false,"internalType":"uint256","name":"amountOut","type":"uint256"},{"indexed":false,"internalType":"address","name":"recipient","type":"address"}],"name":"HookExecuted","type":"event"},{"anonymous":false,"inputs":[{"indexed":true,"internalType":"address","name":"previousOwner","type":"address"},{"indexed":true,"internalType":"address","name":"newOwner","type":"address"}],"name":"OwnershipTransferred","type":"event"},{"anonymous":false,"inputs":[{"indexed":false,"internalType":"address","name":"account","type":"address"}],"name":"Paused","type":"event"},{"anonymous":false,"inputs":[{"indexed":false,"internalType":"address","name":"account","type":"address"}],"name":"Unpaused","type":"event"},{"inputs":[],"name":"USDC","outputs":[{"internalType":"address","name":"","type":"address"}],"stateMutability":"view","type":"function"},{"inputs":[{"internalType":"uint32","name":"","type":"uint32"},{"internalType":"bytes32","name":"","type":"bytes32"}],"name":"authorizedSenders","outputs":[{"internalType":"bool","name":"","type":"bool"}],"stateMutability":"view","type":"function"},{"inputs":[{"internalType":"address","name":"token","type":"address"},{"internalType":"uint256","name":"amount","type":"uint256"},{"internalType":"address","name":"to","type":"address"}],"name":"emergencyWithdraw","outputs":[],"stateMutability":"nonpayable","type":"function"},{"inputs":[{"internalType":"address[]","name":"tokens","type":"address[]"},{"internalType":"address","name":"to","type":"address"}],"name":"emergencyWithdrawMultiple","outputs":[],"stateMutability":"nonpayable","type":"function"},{"inputs":[{"internalType":"uint32","name":"sourceDomain","type":"uint32"},{"internalType":"bytes32","name":"sender","type":"bytes32"},{"internalType":"bytes","name":"messageBody","type":"bytes"}],"name":"handleReceiveMessage","outputs":[{"internalType":"bool","name":"","type":"bool"}],"stateMutability":"nonpayable","type":"function"},{"inputs":[],"name":"messageTransmitter","outputs":[{"internalType":"contract IMessageTransmitter","name":"","type":"address"}],"stateMutability":"view","type":"function"},{"inputs":[],"name":"owner","outputs":[{"internalType":"address","name":"","type":"address"}],"stateMutability":"view","type":"function"},{"inputs":[],"name":"pause","outputs":[],"stateMutability":"nonpayable","type":"function"},{"inputs":[],"name":"paused","outputs":[{"internalType":"bool","name":"","type":"bool"}],"stateMutability":"view","type":"function"},{"inputs":[],"name":"renounceOwnership","outputs":[],"stateMutability":"nonpayable","type":"function"},{"inputs":[{"internalType":"uint32","name":"domain","type":"uint32"},{"internalType":"bytes32","name":"sender","type":"bytes32"},{"internalType":"bool","name":"authorized","type":"bool"}],"name":"setAuthorizedSender","outputs":[],"stateMutability":"nonpayable","type":"function"},{"inputs":[{"internalType":"address","name":"token","type":"address"},{"internalType":"bool","name":"supported","type":"bool"}],"name":"setSupportedToken","outputs":[],"stateMutability":"nonpayable","type":"function"},{"inputs":[{"internalType":"address","name":"_swapExecutor","type":"address"}],"name":"setSwapExecutor","outputs":[],"stateMutability":"nonpayable","type":"function"},{"inputs":[{"internalType":"address","name":"","type":"address"}],"name":"supportedTokens","outputs":[{"internalType":"bool","name":"","type":"bool"}],"stateMutability":"view","type":"function"},{"inputs":[],"name":"swapExecutor","outputs":[{"internalType":"contract ISwapExecutor","name":"","type":"address"}],"stateMutability":"view","type":"function"},{"inputs":[{"internalType":"address","name":"newOwner","type":"address"}],"name":"transferOwnership","outputs":[],"stateMutability":"nonpayable","type":"function"},{"inputs":[],"name":"unpause","outputs":[],"stateMutability":"nonpayable","type":"function"}]}