{"address":"0xE9A5c374245B851841FDC363B34B60E82aA1EbFe","bytecode":"0x60803461010957601f61163238819003918201601f19168301916001600160401b0383118484101761010e5780849260209460405283398101031261010957516001600160a01b03808216918290036101095733156100f0576000549060018060a01b0319913383821617600055604051913391167f8be0079c531659141344cd1fd0a4f28419497f9722a3daafe3b4186f6b6457e0600080a36001805582156100bb5750600554161760055560405161150d90816101258239f35b62461bcd60e51b815260206004820152601060248201526f564c3a205a65726f206164647265737360801b6044820152606490fd5b604051631e4fbdf760e01b815260006004820152602490fd5b600080fd5b634e487b7160e01b600052604160045260246000fdfe6080604081815260048036101561001557600080fd5b600092833560e01c9081627a94c11461109f575080630139904e146110675780630a6e0fd414610f3957806321edaa7014610de75780633f4ba83a14610d7e5780634641287814610d425780634690484014610d19578063551512de14610b34578063561e78c514610a995780635c975abb14610a7557806360c6d8ae14610a56578063715018a6146109f95780637439459b146108fd5780638456cb59146108a25780638da5cb5b1461087a578063bfcfa66b1461082c578063c437c1fd146106f9578063e74b981b1461063f578063eaf7406a14610496578063f00046551461031b578063f25552781461019d5763f2fde38b1461011457600080fd5b346101995760203660031901126101995761012d611135565b906101366113e6565b6001600160a01b0391821692831561018357505082546001600160a01b0319811683178455167f8be0079c531659141344cd1fd0a4f28419497f9722a3daafe3b4186f6b6457e08380a380f35b51631e4fbdf760e01b8152908101849052602490fd5b8280fd5b508290346103175782600319360112610317576101b8611135565b6001600160a01b0360243581811692908381036102f6576101d76113e6565b6101df6114b4565b6101e76113c8565b921561030b575b85516370a0823160e01b815230818601529116926020908183602481885afa9283156103015786936102ce575b50821561029757508495600361028d92867ff3a15b70ef42163a42bbb07edb60d02f31fd11d394c9326022f78e1c7e12f68597985252600181882001610262848254611230565b905561026f838588611412565b519182526001600160a01b0390921660208201529081906040820190565b0390a26001805580f35b60649187519162461bcd60e51b835282015260136024820152724e6f206665657320746f20776974686472617760681b6044820152fd5b9092508181813d83116102fa575b6102e681836111f8565b810103126102f65751918761021b565b8580fd5b503d6102dc565b87513d88823e3d90fd5b600554821692506101ee565b5080fd5b5090346101995761032b366111b5565b936103379291926113e6565b61033f6114b4565b6001600160a01b0394918583161561048a575b865b84811061036357876001805580f35b86610377610372838886611253565b611286565b1690865180926370a0823160e01b8252308683015281602460209384935afa908115610480578a9161044c575b60019350816103b6575b505001610354565b6003908a6103c8610372868c8a611253565b168c525282888b20016103dc828254611230565b90556103f881878b6103f2610372878d8b611253565b16611412565b7ff3a15b70ef42163a42bbb07edb60d02f31fd11d394c9326022f78e1c7e12f685868a610429610372868c8a611253565b8b519485526001600160a01b039290921660208501521691604090a238806103ae565b80915083813d8311610479575b61046381836111f8565b810103126104755760019251906103a4565b8980fd5b503d610459565b88513d8c823e3d90fd5b60055486169250610352565b5034610199576104a5366111b5565b9193906104b06113e6565b6001600160a01b0383811694906104c886151561129a565b875b8381106104d5578880f35b816104e461037283878c611253565b1661054c5760019087878b4780610501575b505050505b016104ca565b61053d828080602095857f05f271cba6a2c296f81808f68936601d4ea77100ca254faa7e0718d89703b2d9985af16105376112de565b5061131e565b8951908152a287878b386104f6565b8161055b61037283878c611253565b1690855180926370a0823160e01b8252308683015281602460209586935afa9081156106355790868a928d926105fe575b50600194868d8c87866105a7575b50505050505050506104fb565b85836105e48961037295886103f2610372887f63e54df36d812af3a73b796ff04f96532b66dd57bc342c07744b4dbcd3de700c9e6105e99c611253565b611253565b16928a51908152a387388681868d8c8761059a565b925050508281813d831161062e575b61061781836111f8565b8101031261062a5751889086600161058c565b8a80fd5b503d61060d565b87513d8d823e3d90fd5b509190346103175760203660031901126103175761065b611135565b6106636113e6565b6001600160a01b039081169384156106c357507faaebcf1bfa00580e41d966056b48521fa9f202645c86d4ddf28113e617c1b1d3929360055491816bffffffffffffffffffffffff60a01b8416176005558351921682526020820152a180f35b606490602084519162461bcd60e51b8352820152601060248201526f564c3a205a65726f206164647265737360801b6044820152fd5b5034610199576020908160031936011261081357803567ffffffffffffffff81116108285761072b9036908301611150565b9161073583611382565b9561073f84611382565b93815b8181106107715787518881528061076d8989610760848e018f611181565b9184830390850152611181565b0390f35b602490876001600160a01b038061078c61037285888c611253565b168652600382528a8620546107a1848e6113b4565b526107b061037284878b611253565b168a51938480926370a0823160e01b8252308a8301525afa801561081e5784906107ea575b600192506107e382896113b4565b5201610742565b50908781813d8311610817575b61080181836111f8565b810103126108135790600191516107d5565b8380fd5b503d6107f7565b89513d86823e3d90fd5b8480fd5b5050346103175760203660031901126103175760609181906001600160a01b03610854611135565b168152600360205220805491600260018301549201549181519384526020840152820152f35b505034610317578160031936011261031757905490516001600160a01b039091168152602090f35b50503461031757816003193601126103175760207f62e78cea01bee320cd4e420270b5ea74000d11b0c9f74754ebdbfc544b05a258916108e06113e6565b6108e86113c8565b600160ff19600254161760025551338152a180f35b5090346101995760209081600319360112610813576001600160a01b03610922611135565b16908185526003835280852081516060810181811067ffffffffffffffff8211176109e65783528482549687835284600260018601549586858701520154930192835260248551809781936370a0823160e01b835230908301525afa9384156109dc5787946109a5575b5060809650519382519586528501528301526060820152f35b9093508481813d83116109d5575b6109bd81836111f8565b810103126109d1576080965051923861098c565b8680fd5b503d6109b3565b83513d89823e3d90fd5b634e487b7160e01b885260418752602488fd5b8334610a535780600319360112610a5357610a126113e6565b80546001600160a01b03198116825581906001600160a01b03167f8be0079c531659141344cd1fd0a4f28419497f9722a3daafe3b4186f6b6457e08280a380f35b80fd5b5050346103175781600319360112610317576020906006549051908152f35b50503461031757816003193601126103175760209060ff6002541690519015158152f35b5034610199578160031936011261019957610ab2611135565b602435918215158303610828577f41d74103d46ef82053a81f2586320f276ea86c84fc3f4781d1d6b9d05917481f93610b2e91610aed6113e6565b6001600160a01b0384168752602052808620805460ff191660ff86151516179055516001600160a01b03909216825291151560208201529081906040820190565b0390a180f35b50903461019957606036600319011261019957610b4f611135565b6044356001600160a01b03818116949293929060243590868403610d1557610b756113e6565b8195610b8288151561129a565b169081610c1c575050478415610c14575b8411610bda575091602091610bd286808080867f05f271cba6a2c296f81808f68936601d4ea77100ca254faa7e0718d89703b2d9995af16105376112de565b51908152a280f35b606490602084519162461bcd60e51b8352820152601460248201527308aae744092dce6eaccccd2c6d2cadce8408aa8960631b6044820152fd5b935083610b93565b93918295939195516370a0823160e01b8152308282015260209586826024818b5afa918215610d0b578a92610cdc575b5015610cd4575b8411610c91575090610c89837f63e54df36d812af3a73b796ff04f96532b66dd57bc342c07744b4dbcd3de700c95949387611412565b51908152a380f35b825162461bcd60e51b8152908101859052601760248201527f45573a20496e73756666696369656e7420746f6b656e730000000000000000006044820152606490fd5b935083610c53565b9091508681813d8311610d04575b610cf481836111f8565b8101031261047557519038610c4c565b503d610cea565b85513d8c823e3d90fd5b8780fd5b50503461031757816003193601126103175760055490516001600160a01b039091168152602090f35b50346101995760203660031901126101995760209260ff918391906001600160a01b03610d6d611135565b168252855220541690519015158152f35b5034610199578260031936011261019957610d976113e6565b6002549060ff821615610dd9575060ff1916600255513381527f5db9ee0a495bf2e6ff9c91a7834c1ba4fdd244a5e8aa4e537bd38aeae4b073aa90602090a180f35b8251638dfc202b60e01b8152fd5b50903461019957806003193601126101995767ffffffffffffffff823581811161082857610e189036908501611150565b90916024359081116102f657610e319036908601611150565b919092610e3c6113e6565b828203610ef657865b828110610e50578780f35b80610e98610e69610e64600194888a611253565b611279565b838060a01b03610e7d610372858989611253565b168b5289602052888b209060ff801983541691151516179055565b7f41d74103d46ef82053a81f2586320f276ea86c84fc3f4781d1d6b9d05917481f610ec7610372838787611253565b610ed5610e6484898b611253565b89516001600160a01b0392909216825215156020820152604090a101610e45565b845162461bcd60e51b8152602081880152601960248201527f564c3a204172726179206c656e677468206d69736d61746368000000000000006044820152606490fd5b509034610199578060031936011261019957610f53611135565b602435923385528060205260ff83862054168015611054575b1561102057610f796113c8565b8315610fe85750907f108516ddcf5ba43cea6bb2cd5ff6d59ac196c1c86ccb9178332b9dd72d1ca5619160018060a01b0316928385526003602052818520610fc2828254611230565b8155600242910155610fd681600654611230565b6006558151908152426020820152a280f35b606490602084519162461bcd60e51b8352820152601260248201527115930e88125b9d985b1a5908185b5bdd5b9d60721b6044820152fd5b606490602084519162461bcd60e51b8352820152600e60248201526d139bdd08185d5d1a1bdc9a5e995960921b6044820152fd5b5084546001600160a01b03163314610f6c565b5050346103175760203660031901126103175760209181906001600160a01b0361108f611135565b1681526003845220549051908152f35b84848492346101995760209384600319360112610813578490829060249082906001600160a01b036110cf611135565b16906370a0823160e01b835230908301525afa92831561112a5780936110f8575b505051908152f35b909192508382813d8311611123575b61111181836111f8565b81010312610a535750519083806110f0565b503d611107565b8251903d90823e3d90fd5b600435906001600160a01b038216820361114b57565b600080fd5b9181601f8401121561114b5782359167ffffffffffffffff831161114b576020808501948460051b01011161114b57565b90815180825260208080930193019160005b8281106111a1575050505090565b835185529381019392810192600101611193565b604060031982011261114b576004359067ffffffffffffffff821161114b576111e091600401611150565b90916024356001600160a01b038116810361114b5790565b90601f8019910116810190811067ffffffffffffffff82111761121a57604052565b634e487b7160e01b600052604160045260246000fd5b9190820180921161123d57565b634e487b7160e01b600052601160045260246000fd5b91908110156112635760051b0190565b634e487b7160e01b600052603260045260246000fd5b35801515810361114b5790565b356001600160a01b038116810361114b5790565b156112a157565b60405162461bcd60e51b81526020600482015260156024820152741155ce88125b9d985b1a59081c9958da5c1a595b9d605a1b6044820152606490fd5b3d15611319573d9067ffffffffffffffff821161121a576040519161130d601f8201601f1916602001846111f8565b82523d6000602084013e565b606090565b1561132557565b60405162461bcd60e51b815260206004820152601760248201527f45573a20455448207472616e73666572206661696c65640000000000000000006044820152606490fd5b67ffffffffffffffff811161121a5760051b60200190565b9061138c8261136a565b61139960405191826111f8565b82815280926113aa601f199161136a565b0190602036910137565b80518210156112635760209160051b010190565b60ff600254166113d457565b60405163d93c066560e01b8152600490fd5b6000546001600160a01b031633036113fa57565b60405163118cdaa760e01b8152336004820152602490fd5b60405163a9059cbb60e01b602082019081526001600160a01b0393841660248301526044808301959095529381529092608082019067ffffffffffffffff82118383101761121a57602092600092604052519082865af1156114a8576000513d61149f57508082163b155b611485575050565b604051635274afe760e01b81529116600482015260249150fd5b6001141561147d565b6040513d6000823e3d90fd5b6002600154146114c5576002600155565b604051633ee5aeb560e01b8152600490fdfea264697066735822122033ae7a89a078040c7ea1cbea4e6c624a872921c5e0e4e0dea7839eb317ec29e664736f6c63430008160033","abi":[{"inputs":[{"internalType":"address","name":"_feeRecipient","type":"address"}],"stateMutability":"nonpayable","type":"constructor"},{"inputs":[],"name":"EnforcedPause","type":"error"},{"inputs":[],"name":"ExpectedPause","type":"error"},{"inputs":[{"internalType":"address","name":"owner","type":"address"}],"name":"OwnableInvalidOwner","type":"error"},{"inputs":[{"internalType":"address","name":"account","type":"address"}],"name":"OwnableUnauthorizedAccount","type":"error"},{"inputs":[],"name":"ReentrancyGuardReentrantCall","type":"error"},{"inputs":[{"internalType":"address","name":"token","type":"address"}],"name":"SafeERC20FailedOperation","type":"error"},{"anonymous":false,"inputs":[{"indexed":false,"internalType":"address","name":"collector","type":"address"},{"indexed":false,"internalType":"bool","name":"authorized","type":"bool"}],"name":"CollectorAuthorized","type":"event"},{"anonymous":false,"inputs":[{"indexed":false,"internalType":"uint256","name":"amount","type":"uint256"},{"indexed":true,"internalType":"address","name":"to","type":"address"}],"name":"EmergencyWithdrawETH","type":"event"},{"anonymous":false,"inputs":[{"indexed":true,"internalType":"address","name":"token","type":"address"},{"indexed":false,"internalType":"uint256","name":"amount","type":"uint256"},{"indexed":true,"internalType":"address","name":"to","type":"address"}],"name":"EmergencyWithdrawToken","type":"event"},{"anonymous":false,"inputs":[{"indexed":true,"internalType":"address","name":"token","type":"address"},{"indexed":false,"internalType":"uint256","name":"amount","type":"uint256"},{"indexed":false,"internalType":"uint256","name":"timestamp","type":"uint256"}],"name":"FeeCollected","type":"event"},{"anonymous":false,"inputs":[{"indexed":false,"internalType":"address","name":"oldRecipient","type":"address"},{"indexed":false,"internalType":"address","name":"newRecipient","type":"address"}],"name":"FeeRecipientUpdated","type":"event"},{"anonymous":false,"inputs":[{"indexed":true,"internalType":"address","name":"token","type":"address"},{"indexed":false,"internalType":"uint256","name":"amount","type":"uint256"},{"indexed":false,"internalType":"address","name":"recipient","type":"address"}],"name":"FeeWithdrawn","type":"event"},{"anonymous":false,"inputs":[{"indexed":true,"internalType":"address","name":"previousOwner","type":"address"},{"indexed":true,"internalType":"address","name":"newOwner","type":"address"}],"name":"OwnershipTransferred","type":"event"},{"anonymous":false,"inputs":[{"indexed":false,"internalType":"address","name":"account","type":"address"}],"name":"Paused","type":"event"},{"anonymous":false,"inputs":[{"indexed":false,"internalType":"address","name":"account","type":"address"}],"name":"Unpaused","type":"event"},{"inputs":[{"internalType":"address","name":"collector","type":"address"},{"internalType":"bool","name":"authorized","type":"bool"}],"name":"authorizeCollector","outputs":[],"stateMutability":"nonpayable","type":"function"},{"inputs":[{"internalType":"address[]","name":"collectors","type":"address[]"},{"internalType":"bool[]","name":"authorized","type":"bool[]"}],"name":"authorizeCollectors","outputs":[],"stateMutability":"nonpayable","type":"function"},{"inputs":[{"internalType":"address","name":"","type":"address"}],"name":"authorizedCollectors","outputs":[{"internalType":"bool","name":"","type":"bool"}],"stateMutability":"view","type":"function"},{"inputs":[{"internalType":"address","name":"token","type":"address"},{"internalType":"uint256","name":"amount","type":"uint256"},{"internalType":"address","name":"to","type":"address"}],"name":"emergencyWithdraw","outputs":[],"stateMutability":"nonpayable","type":"function"},{"inputs":[{"internalType":"address[]","name":"tokens","type":"address[]"},{"internalType":"address","name":"to","type":"address"}],"name":"emergencyWithdrawMultiple","outputs":[],"stateMutability":"nonpayable","type":"function"},{"inputs":[{"internalType":"address","name":"","type":"address"}],"name":"feeInfo","outputs":[{"internalType":"uint256","name":"totalCollected","type":"uint256"},{"internalType":"uint256","name":"totalWithdrawn","type":"uint256"},{"internalType":"uint256","name":"lastCollection","type":"uint256"}],"stateMutability":"view","type":"function"},{"inputs":[],"name":"feeRecipient","outputs":[{"internalType":"address","name":"","type":"address"}],"stateMutability":"view","type":"function"},{"inputs":[{"internalType":"address[]","name":"tokens","type":"address[]"}],"name":"getAllFeeInfo","outputs":[{"internalType":"uint256[]","name":"totalCollected","type":"uint256[]"},{"internalType":"uint256[]","name":"available","type":"uint256[]"}],"stateMutability":"view","type":"function"},{"inputs":[{"internalType":"address","name":"token","type":"address"}],"name":"getAvailableFees","outputs":[{"internalType":"uint256","name":"","type":"uint256"}],"stateMutability":"view","type":"function"},{"inputs":[{"internalType":"address","name":"token","type":"address"}],"name":"getFeeInfo","outputs":[{"internalType":"uint256","name":"totalCollected","type":"uint256"},{"internalType":"uint256","name":"totalWithdrawn","type":"uint256"},{"internalType":"uint256","name":"available","type":"uint256"},{"internalType":"uint256","name":"lastCollection","type":"uint256"}],"stateMutability":"view","type":"function"},{"inputs":[{"internalType":"address","name":"token","type":"address"}],"name":"getTotalFees","outputs":[{"internalType":"uint256","name":"","type":"uint256"}],"stateMutability":"view","type":"function"},{"inputs":[],"name":"owner","outputs":[{"internalType":"address","name":"","type":"address"}],"stateMutability":"view","type":"function"},{"inputs":[],"name":"pause","outputs":[],"stateMutability":"nonpayable","type":"function"},{"inputs":[],"name":"paused","outputs":[{"internalType":"bool","name":"","type":"bool"}],"stateMutability":"view","type":"function"},{"inputs":[{"internalType":"address","name":"token","type":"address"},{"internalType":"uint256","name":"amount","type":"uint256"}],"name":"recordFee","outputs":[],"stateMutability":"nonpayable","type":"function"},{"inputs":[],"name":"renounceOwnership","outputs":[],"stateMutability":"nonpayable","type":"function"},{"inputs":[{"internalType":"address","name":"recipient","type":"address"}],"name":"setFeeRecipient","outputs":[],"stateMutability":"nonpayable","type":"function"},{"inputs":[],"name":"totalFeesCollected","outputs":[{"internalType":"uint256","name":"","type":"uint256"}],"stateMutability":"view","type":"function"},{"inputs":[{"internalType":"address","name":"newOwner","type":"address"}],"name":"transferOwnership","outputs":[],"stateMutability":"nonpayable","type":"function"},{"inputs":[],"name":"unpause","outputs":[],"stateMutability":"nonpayable","type":"function"},{"inputs":[{"internalType":"address","name":"token","type":"address"},{"internalType":"address","name":"recipient","type":"address"}],"name":"withdrawFees","outputs":[],"stateMutability":"nonpayable","type":"function"},{"inputs":[{"internalType":"address[]","name":"tokens","type":"address[]"},{"internalType":"address","name":"recipient","type":"address"}],"name":"withdrawMultipleFees","outputs":[],"stateMutability":"nonpayable","type":"function"}]}