{"address":"0xE2ea3f454e12362212b1734eD0218E7691bd985c","bytecode":"0x60a03461011a57601f6200253838819003918201601f19168301916001600160401b0383118484101761011f5780849260209460405283398101031261011a57516001600160a01b038082169182900361011a573315610101576000543360018060a01b0319821617600055604051913391167f8be0079c531659141344cd1fd0a4f28419497f9722a3daafe3b4186f6b6457e0600080a36001805581156100cc5750608052604051612402908162000136823960805181818161122c0152818161205b015261213e0152f35b62461bcd60e51b815260206004820152601060248201526f564c3a205a65726f206164647265737360801b6044820152606490fd5b604051631e4fbdf760e01b815260006004820152602490fd5b600080fd5b634e487b7160e01b600052604160045260246000fdfe610160604052600436101561001357600080fd5b60003560e01c806307ef21901461183457806320b3ff3b1461125b5780632c76d7a6146112165780633f4ba83a146111ac578063551512de14610fd95780635c975abb14610fb65780635d1e560214610ce057806367bea49314610ca1578063715018a614610c48578063744b92e214610b915780638456cb5914610b3757806388030a9814610aec5780638da5cb5b14610ac3578063a30813c71461063d578063b88a5bc314610364578063cfdbf25414610348578063eaf7406a146101715763f2fde38b146100e357600080fd5b3461016c57602036600319011261016c576100fc611a32565b610104611f1d565b6001600160a01b0390811690811561015357600054826001600160601b0360a01b821617600055167f8be0079c531659141344cd1fd0a4f28419497f9722a3daafe3b4186f6b6457e0600080a3005b604051631e4fbdf760e01b815260006004820152602490fd5b600080fd5b3461016c57604036600319011261016c576004356001600160401b03811161016c576101a1903690600401611a02565b6101a9611a5e565b906101b2611f1d565b6001600160a01b0391808316916101ca831515611b3e565b60005b8181106101d657005b846101ea6101e583858a611ad9565b611ae9565b1661024f57600190844780610203575b50505b016101cd565b60208161024160008080807f05f271cba6a2c296f81808f68936601d4ea77100ca254faa7e0718d89703b2d9978d5af161023b611b9d565b50611bcd565b604051908152a284886101fa565b8461025e6101e583858a611ad9565b169060405180926370a0823160e01b825230600483015281602460209586935afa801561033c57848792600092610309575b50600194898b8987866102ab575b50505050505050506101fd565b85836102ee896101e595886102e86101e5887f63e54df36d812af3a73b796ff04f96532b66dd57bc342c07744b4dbcd3de700c9e6102f39c611ad9565b16611f49565b611ad9565b1692604051908152a384888481898b898761029e565b925050508281813d8311610335575b610322818361192f565b8101031261016c57518590846001610290565b503d610318565b6040513d6000823e3d90fd5b3461016c57600036600319011261016c576020604051600a8152f35b3461016c5760a036600319011261016c5761037d611a32565b610385611a5e565b9061038e611a48565b60643592600384101561016c576001600160401b039060843582811161016c576103bc903690600401611a74565b9590926103c7611f1d565b60405196602091828901896103fa878b84906028926001600160601b0319809260601b16835260601b1660148201520190565b039961040e601f199b8c810183528261192f565b51902090604051998a9361042185611914565b61044760018060a01b0399878b8d169788815201926104408a85611c5c565b3691611dad565b9360408d01948552600052600386528860406000209c51168c54915160038110156106275760ff60a01b9060a01b16916affffffffffffffffffffff60a81b1617178b556001809b0192519a8b51928311610611576104a684546118da565b601f81116105d6575b508591601f84116001146105475750509161050f82600495936105379897957f1499960aa396b70c1f355843d1c3d271851878139f328ca7fda1378e871ea1ba9c9d9e60009261053c575b50508160011b916000199060031b1c19161790565b90555b600052526040600020600160ff19825416179055836040519485941697169583611de4565b0390a3005b015190508e806104fa565b60008581528781209d92918516915b8282106105bf575050927f1499960aa396b70c1f355843d1c3d271851878139f328ca7fda1378e871ea1ba9a9b9c610537989795936001938360049997106105a6575b505050811b019055610512565b015160001960f88460031b161c191690558d8080610599565b848401518f559d8e019d9388019390880190610556565b610601908560005287600020601f860160051c810191898710610607575b601f0160051c0190611c68565b8c6104af565b90915081906105f4565b634e487b7160e01b600052604160045260246000fd5b634e487b7160e01b600052602160045260246000fd5b3461016c5760a036600319011261016c576004356001600160401b03811161016c5761066d903690600401611a02565b60a052608052602480356001600160401b03811161016c57610693903690600401611a02565b60c052610140526044356001600160401b03811161016c576106b9903690600401611a02565b60e052906064356001600160401b03811161016c576106dc903690600401611a02565b61010052610120526084356001600160401b03811161016c57610703903690600401611a02565b9161070c611f1d565b60c05160a0511480610ab6575b80610aa8575b80610a9d575b15610a605760005b60a051811061073857005b61074a6101e58260a051608051611ad9565b61079161079f6107636101e58560c05161014051611ad9565b604051928391602083019586906028926001600160601b0319809260601b16835260601b1660148201520190565b03601f19810183528261192f565b5190206107b26101e58360e05189611ad9565b906107c4836101005161012051611ad9565b35600381101561016c576108036107dc858989611afd565b604051956107e987611914565b6001600160a01b0316865260208601936104409085611c5c565b9160408401928352600052600360205260406000209260018060a01b03905116835491516003811015610a4b576001600160a81b03199092161760a09190911b60ff60a01b16178255518051906001600160401b038211610a365761086b60018401546118da565b90601f918281116109f9575b5060209183116001146109895791806108a99260019460009261097e5750508160011b916000199060031b1c19161790565b9101555b60018060a01b036108c46101e58360e05189611ad9565b1660005260046020526040600020600160ff198254161790556108ef6101e58260a051608051611ad9565b906109036101e58260c05161014051611ad9565b916109146101e58360e0518a611ad9565b610925836101005161012051611ad9565b3593600385101561016c576040516001956001600160a01b0392831694909216927f1499960aa396b70c1f355843d1c3d271851878139f328ca7fda1378e871ea1ba928291610975919083611de4565b0390a30161072d565b015190508a806104fa565b906001840160005260206000209160005b601f19851681106109e15750918391600194938594601f198116106109c8575b505050811b019101556108ad565b015160001960f88460031b161c191690558980806109ba565b9192602060018192868501518155019401920161099a565b610a2790600186016000526020600020600585808801821c83019360208910610a2d575b01901c0190611c68565b89610877565b93508293610a1d565b84634e487b7160e01b60005260416004526000fd5b86634e487b7160e01b60005260216004526000fd5b60405162461bcd60e51b8152602060048201526015602482015274082e4e4c2f240d8cadccee8d040dad2e6dac2e8c6d605b1b6044820152606490fd5b508260a05114610725565b506101005160a0511461071f565b5060e05160a05114610719565b3461016c57600036600319011261016c576000546040516001600160a01b039091168152602090f35b3461016c57608036600319011261016c57610b05611a32565b610b0d611a5e565b6064356001600160a01b0381160361016c57602091610b2f9160443591611c7f565b604051908152f35b3461016c57600036600319011261016c57610b50611f1d565b610b58611e27565b600160ff1960025416176002557f62e78cea01bee320cd4e420270b5ea74000d11b0c9f74754ebdbfc544b05a2586020604051338152a1005b3461016c57604036600319011261016c57610baa611a32565b610791610bc0610bb8611a5e565b610763611f1d565b519020600052600360205260406000206001808060a01b03825416916000815501610beb81546118da565b9081610c0a575b6000838152600460205260409020805460ff19169055005b81601f60009311600114610c225750555b8180610bf2565b908083918252610c41601f60208420940160051c840160018501611c68565b5555610c1b565b3461016c57600036600319011261016c57610c61611f1d565b600080546001600160a01b0319811682556001600160a01b03167f8be0079c531659141344cd1fd0a4f28419497f9722a3daafe3b4186f6b6457e08280a3005b3461016c57602036600319011261016c576001600160a01b03610cc2611a32565b166000526004602052602060ff604060002054166040519015158152f35b3461016c5760e036600319011261016c57610cf9611a32565b610d01611a5e565b6084356001600160a01b03818116939092606435906044359086850361016c5760a4356001600160401b03811161016c57610d40903690600401611a74565b9060c43598610d4d611e04565b610d55611e27565b610d5e8a611e45565b6000526020809960048252610d7a60ff60406000205416611c19565b610d8386611f8a565b89881697610d938730338c611fcb565b604051606082811b6bffffffffffffffffffffffff199081168684019081529189901b16601482015290610dca8160288401610791565b519020600052600383528a610e0b60016040600020610e0560ff60405198610df18a611914565b83549687168a5289019560a01c1685611c5c565b01611950565b60408501528051600381101561062757610f38575050508189604092511693610e3587868b61224b565b8101031261016c57806084610e558b610e4e819561219d565b930161219d565b9160006040519586948593630f7c084960e21b8552600f0b6004850152600f0b60248401528860448401528960648401525af190811561033c57600091610f01575b50610ebc966000805160206123ad833981519152949392610ef2929889955b866121ab565b1695610ec9843389611f49565b6040805193845260208401949094526001600160a01b0316928201929092529081906060820190565b0390a360018055604051908152f35b9050878181959493953d8311610f31575b610f1c818361192f565b8101031261016c575191929091610ebc610e97565b503d610f12565b90919a9394979695925051600381101561062757600103610f7f57610ebc996000805160206123ad83398151915297610ef295888886610f7796612023565b988995610eb6565b60405162461bcd60e51b815260206004820152600f60248201526e0aadce6eae0e0dee4e8cac840888ab608b1b6044820152606490fd5b3461016c57600036600319011261016c57602060ff600254166040519015158152f35b3461016c57606036600319011261016c57610ff2611a32565b602435610ffd611a48565b611005611f1d565b6001600160a01b038181169383919061101f861515611b3e565b1690816110bb5750504782156110b3575b8211611077578161106e60008080807f05f271cba6a2c296f81808f68936601d4ea77100ca254faa7e0718d89703b2d9976020975af161023b611b9d565b604051908152a2005b60405162461bcd60e51b815260206004820152601460248201527308aae744092dce6eaccccd2c6d2cadce8408aa8960631b6044820152606490fd5b915081611030565b916040939193516370a0823160e01b81523060048201526020938482602481895afa91821561033c5760009261117d575b5015611175575b82116111305790611127817f63e54df36d812af3a73b796ff04f96532b66dd57bc342c07744b4dbcd3de700c949386611f49565b604051908152a3005b60405162461bcd60e51b815260048101849052601760248201527f45573a20496e73756666696369656e7420746f6b656e730000000000000000006044820152606490fd5b9150816110f3565b9091508481813d83116111a5575b611195818361192f565b8101031261016c575190876110ec565b503d61118b565b3461016c57600036600319011261016c576111c5611f1d565b60025460ff8116156112045760ff19166002557f5db9ee0a495bf2e6ff9c91a7834c1ba4fdd244a5e8aa4e537bd38aeae4b073aa6020604051338152a1005b604051638dfc202b60e01b8152600490fd5b3461016c57600036600319011261016c576040517f00000000000000000000000000000000000000000000000000000000000000006001600160a01b03168152602090f35b3461016c5760e036600319011261016c576004356001600160401b03811161016c5761128b903690600401611a02565b6024356001600160401b03811161016c576112aa903690600401611a02565b916044356001600160401b03811161016c576112ca903690600401611a02565b9190936064356001600160401b03811161016c576112ec903690600401611a02565b93906084356001600160401b03811161016c5761130d903690600401611a02565b949060a4356001600160401b03811161016c5761132e903690600401611a02565b989093611339611e04565b611341611e27565b61134c60c435611e45565b83156117fd57600a84116117c2576040518060e08101106001600160401b0360e0830111176106115760e081016040526006815260c03660208301378461139282611ab8565b528051600110156117ac578760408201528051600210156117ac578660608201528051600310156117ac578960808201528051600410156117ac578860a08201528051600510156117ac57808b60c06113ec930152611e88565b6113f584611aa1565b9b6114036040519d8e61192f565b848d5261140f85611aa1565b601f19013660208f01378c60005b86811061146e57506001805560405180916020820160208352815180915260206040840192019060005b818110611455575050500390f35b8251845285945060209384019390920191600101611447565b8c8c8f8c8c8f92868c8f928f838f928f928f9483611490818098948195611ad9565b61149990611ae9565b9b6114a392611ad9565b6114ac90611ae9565b986114b692611ad9565b35996114c192611ad9565b35966114cc92611ad9565b6114d590611ae9565b966114df92611afd565b6001600160a01b0387166000908152600460205260409020549091906115079060ff16611c19565b61151086611f8a565b6115258630336001600160a01b038816611fcb565b604051606085811b6bffffffffffffffffffffffff19908116602084019081529186901b166034830152602882529061155f60488261192f565b519020600052600360205260406000206040519061157c82611914565b80546001600160a01b038116835261159d9060a01c60ff1660208401611c5c565b6001016115a990611950565b604082015280516001600160a01b0389811691160361177757602081015160038110156106275761172057516001600160a01b03908116926040918391906115f6908a9087908a1661224b565b8101031261016c578060846116106020610e4e819561219d565b9160006040519586948593630f7c084960e21b8552600f90810b60048601520b60248401528a60448401528960648401525af190811561033c576000916116d2575b50936000805160206123ad8339815191528794600199946116c161167f99956116c9999a8b945b856121ab565b8c8060a01b031695611692843389611f49565b6040519384938e8060a01b031696849192604091949360608401958452602084015260018060a01b0316910152565b0390a3611ac5565b52018d9061141d565b93959197929490506020843d602011611718575b816116f36020938361192f565b8101031261016c579251919690949293916000805160206123ad833981519152611652565b3d91506116e6565b602090999497939599969291960151600381101561062757600103610f7f5760019861167f976116c18a9761176f6116c99a6000805160206123ad8339815191529660c43591878a8689612023565b9a8b94611679565b60405162461bcd60e51b815260206004820152600d60248201526c0a0deded840dad2e6dac2e8c6d609b1b6044820152606490fd5b634e487b7160e01b600052603260045260246000fd5b60405162461bcd60e51b8152602060048201526013602482015272564c3a20417272617920746f6f206c6172676560681b6044820152606490fd5b60405162461bcd60e51b815260206004820152600f60248201526e564c3a20456d70747920617272617960881b6044820152606490fd5b3461016c5760208060031936011261016c5761188a9060043560005260036020526040600020611868600182549201611950565b9160405193849260018060a01b038116845260ff602085019160a01c166119f5565b606060408301528251908160608401526000935b8285106118c1575050608092506000838284010152601f80199101168101030190f35b848101820151868601608001529381019385935061189e565b90600182811c9216801561190a575b60208310146118f457565b634e487b7160e01b600052602260045260246000fd5b91607f16916118e9565b606081019081106001600160401b0382111761061157604052565b90601f801991011681019081106001600160401b0382111761061157604052565b90604051918260008254611963816118da565b908184526020946001916001811690816000146119d35750600114611994575b5050506119929250038361192f565b565b600090815285812095935091905b8183106119bb5750506119929350820101388080611983565b855488840185015294850194879450918301916119a2565b9250505061199294925060ff191682840152151560051b820101388080611983565b9060038210156106275752565b9181601f8401121561016c578235916001600160401b03831161016c576020808501948460051b01011161016c57565b600435906001600160a01b038216820361016c57565b604435906001600160a01b038216820361016c57565b602435906001600160a01b038216820361016c57565b9181601f8401121561016c578235916001600160401b03831161016c576020838186019501011161016c57565b6001600160401b0381116106115760051b60200190565b8051156117ac5760200190565b80518210156117ac5760209160051b010190565b91908110156117ac5760051b0190565b356001600160a01b038116810361016c5790565b91908110156117ac5760051b81013590601e198136030182121561016c5701908135916001600160401b03831161016c57602001823603811361016c579190565b15611b4557565b60405162461bcd60e51b81526020600482015260156024820152741155ce88125b9d985b1a59081c9958da5c1a595b9d605a1b6044820152606490fd5b6001600160401b03811161061157601f01601f191660200190565b3d15611bc8573d90611bae82611b82565b91611bbc604051938461192f565b82523d6000602084013e565b606090565b15611bd457565b60405162461bcd60e51b815260206004820152601760248201527f45573a20455448207472616e73666572206661696c65640000000000000000006044820152606490fd5b15611c2057565b60405162461bcd60e51b8152602060048201526014602482015273141bdbdb081b9bdd081dda1a5d195b1a5cdd195960621b6044820152606490fd5b60038210156106275752565b818110611c73575050565b60008155600101611c68565b91906040928351611cb7816107916020958683019586906028926001600160601b0319809260601b16835260601b1660148201520190565b519020906000918252600381528382208451611cd281611914565b81546001600160a01b0380821683529284830191611cfd91600191610e059060a01c60ff1685611c5c565b87830152516003811015611d995715611d195750505050905090565b9082915116936064865180968193635e0d443f60e01b83528760048401526001602484015260448301525afa938415611d8e57508193611d5a575b50505090565b9091809350813d8311611d87575b611d72818361192f565b81010312611d84575051388080611d54565b80fd5b503d611d68565b51913d9150823e3d90fd5b634e487b7160e01b85526021600452602485fd5b929192611db982611b82565b91611dc7604051938461192f565b82948184528183011161016c578281602093846000960137010152565b6001600160a01b03909116815260408101929161199291602001906119f5565b600260015414611e15576002600155565b604051633ee5aeb560e01b8152600490fd5b60ff60025416611e3357565b60405163d93c066560e01b8152600490fd5b4211611e4d57565b60405162461bcd60e51b815260206004820152601360248201527215930e88111958591b1a5b99481c185cdcd959606a1b6044820152606490fd5b805115611f1a57611e9881611ab8565b51600191829190825b611eac575b50505050565b8051831015611f155781611ec08483611ac5565b5103611ed0578380930192611ea1565b60405162461bcd60e51b815260206004820152601960248201527f564c3a204172726179206c656e677468206d69736d61746368000000000000006044820152606490fd5b611ea6565b50565b6000546001600160a01b03163303611f3157565b60405163118cdaa760e01b8152336004820152602490fd5b60405163a9059cbb60e01b60208201526001600160a01b0392909216602483015260448083019390935291815261199291611f8560648361192f565b6121ef565b15611f9157565b60405162461bcd60e51b815260206004820152601260248201527115930e88125b9d985b1a5908185b5bdd5b9d60721b6044820152606490fd5b6040516323b872dd60e01b60208201526001600160a01b03928316602482015292909116604483015260648083019390935291815260a08101918183106001600160401b0384111761061157611992926040526121ef565b94938096919460209788918101031261016c573562ffffff9586821680920361016c576001600160a01b0390811695906120819085907f0000000000000000000000000000000000000000000000000000000000000000168861224b565b6040519561010087018781106001600160401b038211176106115760409081529087526001600160a01b0391821689880190815287820193845230606089019081526080890195865260a0890196875260c08901978852600060e08a01818152935163414bf38960e01b81529951851660048b01529151841660248a01529351909816604488015291518116606487015291516084860152915160a4850152915160c484015251811660e4830152909183918391610104918391907f0000000000000000000000000000000000000000000000000000000000000000165af191821561033c5760009261217357505090565b90809250813d8311612196575b61218a818361192f565b8101031261016c575190565b503d612180565b359081600f0b820361016c57565b106121b257565b60405162461bcd60e51b815260206004820152601560248201527415930e8814db1a5c1c1859d948195e18d959591959605a1b6044820152606490fd5b906000602091828151910182855af11561033c576000513d61224257506001600160a01b0381163b155b6122205750565b604051635274afe760e01b81526001600160a01b039091166004820152602490fd5b60011415612219565b604051636eb1769f60e11b81523060048201526001600160a01b03838116602483018190526020959294909290918416908686604481855afa95861561033c5760009661237d575b5085018095116123675760405163095ea7b360e01b8782018181526001600160a01b03949094166024830152604480830197909752958152949186906000906122dd60648961192f565b87519082885af1903d6000519083612348575b50505015612300575b5050505050565b6040519485015260248401526000604484015260448352608083018381106001600160401b038211176106115761233e93611f8591604052826121ef565b38808080806122f9565b9192509061235d57503b15155b3880806122f0565b6001915014612355565b634e487b7160e01b600052601160045260246000fd5b9095508681813d83116123a5575b612395818361192f565b8101031261016c57519438612293565b503d61238b56feee4825a7988c5519a874be79f2a84d13d02cfe5f74cad97cda2d5b55d2b13bfaa264697066735822122037fd4e2ece0c671004dfbff7836e767992ca7d583b48248b9f5c43c24e782ede64736f6c63430008160033","abi":[{"inputs":[{"internalType":"address","name":"_uniswapV3Router","type":"address"}],"stateMutability":"nonpayable","type":"constructor"},{"inputs":[],"name":"EnforcedPause","type":"error"},{"inputs":[],"name":"ExpectedPause","type":"error"},{"inputs":[{"internalType":"address","name":"owner","type":"address"}],"name":"OwnableInvalidOwner","type":"error"},{"inputs":[{"internalType":"address","name":"account","type":"address"}],"name":"OwnableUnauthorizedAccount","type":"error"},{"inputs":[],"name":"ReentrancyGuardReentrantCall","type":"error"},{"inputs":[{"internalType":"address","name":"token","type":"address"}],"name":"SafeERC20FailedOperation","type":"error"},{"anonymous":false,"inputs":[{"indexed":false,"internalType":"uint256","name":"amount","type":"uint256"},{"indexed":true,"internalType":"address","name":"to","type":"address"}],"name":"EmergencyWithdrawETH","type":"event"},{"anonymous":false,"inputs":[{"indexed":true,"internalType":"address","name":"token","type":"address"},{"indexed":false,"internalType":"uint256","name":"amount","type":"uint256"},{"indexed":true,"internalType":"address","name":"to","type":"address"}],"name":"EmergencyWithdrawToken","type":"event"},{"anonymous":false,"inputs":[{"indexed":true,"internalType":"address","name":"previousOwner","type":"address"},{"indexed":true,"internalType":"address","name":"newOwner","type":"address"}],"name":"OwnershipTransferred","type":"event"},{"anonymous":false,"inputs":[{"indexed":false,"internalType":"address","name":"account","type":"address"}],"name":"Paused","type":"event"},{"anonymous":false,"inputs":[{"indexed":true,"internalType":"address","name":"tokenA","type":"address"},{"indexed":true,"internalType":"address","name":"tokenB","type":"address"},{"indexed":false,"internalType":"address","name":"pool","type":"address"},{"indexed":false,"internalType":"enum SwapExecutor.DexType","name":"dexType","type":"uint8"}],"name":"PoolConfigured","type":"event"},{"anonymous":false,"inputs":[{"indexed":true,"internalType":"address","name":"tokenIn","type":"address"},{"indexed":true,"internalType":"address","name":"tokenOut","type":"address"},{"indexed":false,"internalType":"uint256","name":"amountIn","type":"uint256"},{"indexed":false,"internalType":"uint256","name":"amountOut","type":"uint256"},{"indexed":false,"internalType":"address","name":"pool","type":"address"}],"name":"SwapExecuted","type":"event"},{"anonymous":false,"inputs":[{"indexed":false,"internalType":"address","name":"account","type":"address"}],"name":"Unpaused","type":"event"},{"inputs":[],"name":"MAX_BATCH_SIZE","outputs":[{"internalType":"uint256","name":"","type":"uint256"}],"stateMutability":"view","type":"function"},{"inputs":[{"internalType":"address","name":"tokenA","type":"address"},{"internalType":"address","name":"tokenB","type":"address"},{"internalType":"address","name":"pool","type":"address"},{"internalType":"enum SwapExecutor.DexType","name":"dexType","type":"uint8"},{"internalType":"bytes","name":"poolData","type":"bytes"}],"name":"configurePool","outputs":[],"stateMutability":"nonpayable","type":"function"},{"inputs":[{"internalType":"address[]","name":"tokenAs","type":"address[]"},{"internalType":"address[]","name":"tokenBs","type":"address[]"},{"internalType":"address[]","name":"pools","type":"address[]"},{"internalType":"enum SwapExecutor.DexType[]","name":"dexTypes","type":"uint8[]"},{"internalType":"bytes[]","name":"poolDatas","type":"bytes[]"}],"name":"configurePools","outputs":[],"stateMutability":"nonpayable","type":"function"},{"inputs":[{"internalType":"address","name":"token","type":"address"},{"internalType":"uint256","name":"amount","type":"uint256"},{"internalType":"address","name":"to","type":"address"}],"name":"emergencyWithdraw","outputs":[],"stateMutability":"nonpayable","type":"function"},{"inputs":[{"internalType":"address[]","name":"tokens","type":"address[]"},{"internalType":"address","name":"to","type":"address"}],"name":"emergencyWithdrawMultiple","outputs":[],"stateMutability":"nonpayable","type":"function"},{"inputs":[{"internalType":"address[]","name":"tokensIn","type":"address[]"},{"internalType":"address[]","name":"tokensOut","type":"address[]"},{"internalType":"uint256[]","name":"amountsIn","type":"uint256[]"},{"internalType":"uint256[]","name":"minAmountsOut","type":"uint256[]"},{"internalType":"address[]","name":"pools","type":"address[]"},{"internalType":"bytes[]","name":"swapData","type":"bytes[]"},{"internalType":"uint256","name":"deadline","type":"uint256"}],"name":"executeBatchSwaps","outputs":[{"internalType":"uint256[]","name":"amountsOut","type":"uint256[]"}],"stateMutability":"nonpayable","type":"function"},{"inputs":[{"internalType":"address","name":"tokenIn","type":"address"},{"internalType":"address","name":"tokenOut","type":"address"},{"internalType":"uint256","name":"amountIn","type":"uint256"},{"internalType":"uint256","name":"minAmountOut","type":"uint256"},{"internalType":"address","name":"pool","type":"address"},{"internalType":"bytes","name":"swapData","type":"bytes"},{"internalType":"uint256","name":"deadline","type":"uint256"}],"name":"executeSwap","outputs":[{"internalType":"uint256","name":"amountOut","type":"uint256"}],"stateMutability":"nonpayable","type":"function"},{"inputs":[{"internalType":"address","name":"tokenIn","type":"address"},{"internalType":"address","name":"tokenOut","type":"address"},{"internalType":"uint256","name":"amountIn","type":"uint256"},{"internalType":"address","name":"pool","type":"address"}],"name":"getAmountOut","outputs":[{"internalType":"uint256","name":"","type":"uint256"}],"stateMutability":"view","type":"function"},{"inputs":[],"name":"owner","outputs":[{"internalType":"address","name":"","type":"address"}],"stateMutability":"view","type":"function"},{"inputs":[],"name":"pause","outputs":[],"stateMutability":"nonpayable","type":"function"},{"inputs":[],"name":"paused","outputs":[{"internalType":"bool","name":"","type":"bool"}],"stateMutability":"view","type":"function"},{"inputs":[{"internalType":"bytes32","name":"","type":"bytes32"}],"name":"poolConfigs","outputs":[{"internalType":"address","name":"pool","type":"address"},{"internalType":"enum SwapExecutor.DexType","name":"dexType","type":"uint8"},{"internalType":"bytes","name":"poolData","type":"bytes"}],"stateMutability":"view","type":"function"},{"inputs":[{"internalType":"address","name":"tokenA","type":"address"},{"internalType":"address","name":"tokenB","type":"address"}],"name":"removePool","outputs":[],"stateMutability":"nonpayable","type":"function"},{"inputs":[],"name":"renounceOwnership","outputs":[],"stateMutability":"nonpayable","type":"function"},{"inputs":[{"internalType":"address","name":"newOwner","type":"address"}],"name":"transferOwnership","outputs":[],"stateMutability":"nonpayable","type":"function"},{"inputs":[],"name":"uniswapV3Router","outputs":[{"internalType":"contract IUniswapV3Router","name":"","type":"address"}],"stateMutability":"view","type":"function"},{"inputs":[],"name":"unpause","outputs":[],"stateMutability":"nonpayable","type":"function"},{"inputs":[{"internalType":"address","name":"","type":"address"}],"name":"whitelistedPools","outputs":[{"internalType":"bool","name":"","type":"bool"}],"stateMutability":"view","type":"function"}]}