{"address":"0xD84F50DcdeC8e3E84c970d708ccbE5a3c5D68a79","bytecode":"0x6080806040523461001657610828908161001c8239f35b600080fdfe6040608081526004908136101561001557600080fd5b600091823560e01c9081632132e2c014610474578163503fa44f1461042c578163703564311461040c578163782aaeea146103c357816388030a981461033b5781639d49776114610095575063a3e860fe1461007057600080fd5b3461009157816003193601126100915760209051670de0b6b3a76400008152f35b5080fd5b8383346100915760209260031984813601126103375781359367ffffffffffffffff918286116100915760c0868501918736030112610091576001600160a01b0393846100e183610776565b16156103025760249081880194866100f887610776565b16156102ce57604492838a013595861561029c578861011687610776565b8b516323b872dd60e01b8f8201523385820152308882015260648082018b90528152911660a0820185811183821017610289578c52610155919061078a565b8861015f87610776565b168152808c52898120896101728a610776565b1682528c5289812054801561027a575b670de0b6b3a76400006101976064928a61074d565b049b01358b1061024557886101ab89610776565b8b5163a9059cbb60e01b8f82015233858201528781018e905296875216936080860193841186851017610235575050507fee4825a7988c5519a874be79f2a84d13d02cfe5f74cad97cda2d5b55d2b13bfa93610211899461021c9461021694875261078a565b610776565b94610776565b948151938452878985015280339616941692a451908152f35b634e487b7160e01b825260419052fd5b50827014db1a5c1c1859d948195e18d959591959607a1b8560116064948f8e519562461bcd60e51b8752860152840152820152fd5b50670de0b6b3a7640000610182565b5050634e487b7160e01b82525060418452fd5b50826d125b9d985b1a5908185b5bdd5b9d60921b85600e6064948f8e519562461bcd60e51b8752860152840152820152fd5b5060106064928a89519362461bcd60e51b85528401528201526f125b9d985b1a59081d1bdad95b93dd5d60821b6044820152fd5b855162461bcd60e51b8152908101889052600f60248201526e24b73b30b634b2103a37b5b2b724b760891b6044820152606490fd5b8380fd5b505034610091576080366003190112610091576103566106b8565b61035e6106d3565b906001600160a01b0390606435828116036103bf579181602095928594168352828652838320911682528452205480156103b0575b6103a8670de0b6b3a76400009160443561074d565b049051908152f35b50670de0b6b3a7640000610393565b8480fd5b505034610091576060366003190112610091576103de6106b8565b6103e66106d3565b6001600160a01b0391821684526020848152838520929091168452528120604435905580f35b50503461009157366003190112610429576104256106b8565b5080f35b80fd5b5050346100915780600319360112610091578060209261044a6106b8565b6104526106d3565b6001600160a01b03918216835282865283832091168252845220549051908152f35b90508234610429576020806003193601126100915767ffffffffffffffff91833583811161009157366023820112156100915780850135948486116106b45760249160059136848960051b840101116103bf576104d688939795969998610735565b946104e3895196876106fd565b8386526104ef84610735565b868b0198601f1992918301368b373685900360e2190190895b87811061054f578d8d8d8d8d83519485948186019282875251809352850193925b82811061053857505050500390f35b835185528695509381019392810192600101610529565b80829e9b9a9c9d9e1b89818901013584811215610695578f51639d49776160e01b81528881018e9052919089016001600160a01b03806105908e84016106e9565b168d850152604490806105a48385016106e9565b1682860152606480840135908601526084808401359086015260a4906105cb8285016106e9565b169085015260c49182810135604219823603018112156106b05701908d8201359101918882116106ac5781360383136106ac578f928f9190868c601f829660c084968501528060e48501528061010495868601378685828601015201168101030191305af19182156106a0578c9261066d575b508d5183101561065b578d018c0152999c9b9a9899600101610508565b634e487b7160e01b8c52603288528a8cfd5b9091508c81813d8311610699575b61068581836106fd565b810103126106955751903861063e565b8b80fd5b503d61067b565b50508e513d8c823e3d90fd5b8e80fd5b8f80fd5b8280fd5b600435906001600160a01b03821682036106ce57565b600080fd5b602435906001600160a01b03821682036106ce57565b35906001600160a01b03821682036106ce57565b90601f8019910116810190811067ffffffffffffffff82111761071f57604052565b634e487b7160e01b600052604160045260246000fd5b67ffffffffffffffff811161071f5760051b60200190565b8181029291811591840414171561076057565b634e487b7160e01b600052601160045260246000fd5b356001600160a01b03811681036106ce5790565b906000602091828151910182855af1156107e6576000513d6107dd57506001600160a01b0381163b155b6107bb5750565b604051635274afe760e01b81526001600160a01b039091166004820152602490fd5b600114156107b4565b6040513d6000823e3d90fdfea26469706673582212206713aabc8e39ce5b700d93dea07c5ff5765c68b4b07c01b41a7a04b7d768b3de64736f6c63430008160033","abi":[{"inputs":[],"stateMutability":"nonpayable","type":"constructor"},{"inputs":[{"internalType":"address","name":"token","type":"address"}],"name":"SafeERC20FailedOperation","type":"error"},{"anonymous":false,"inputs":[{"indexed":true,"internalType":"address","name":"tokenIn","type":"address"},{"indexed":true,"internalType":"address","name":"tokenOut","type":"address"},{"indexed":false,"internalType":"uint256","name":"amountIn","type":"uint256"},{"indexed":false,"internalType":"uint256","name":"amountOut","type":"uint256"},{"indexed":true,"internalType":"address","name":"executor","type":"address"}],"name":"SwapExecuted","type":"event"},{"inputs":[],"name":"DEFAULT_RATE","outputs":[{"internalType":"uint256","name":"","type":"uint256"}],"stateMutability":"view","type":"function"},{"inputs":[{"internalType":"address","name":"token","type":"address"},{"internalType":"uint256","name":"amount","type":"uint256"}],"name":"dealTokens","outputs":[],"stateMutability":"nonpayable","type":"function"},{"inputs":[{"internalType":"address","name":"","type":"address"},{"internalType":"address","name":"","type":"address"}],"name":"exchangeRates","outputs":[{"internalType":"uint256","name":"","type":"uint256"}],"stateMutability":"view","type":"function"},{"inputs":[{"components":[{"internalType":"address","name":"tokenIn","type":"address"},{"internalType":"address","name":"tokenOut","type":"address"},{"internalType":"uint256","name":"amountIn","type":"uint256"},{"internalType":"uint256","name":"minAmountOut","type":"uint256"},{"internalType":"address","name":"pool","type":"address"},{"internalType":"bytes","name":"swapData","type":"bytes"}],"internalType":"struct ISwapExecutor.SwapParams[]","name":"swaps","type":"tuple[]"}],"name":"executeBatchSwaps","outputs":[{"internalType":"uint256[]","name":"amountsOut","type":"uint256[]"}],"stateMutability":"nonpayable","type":"function"},{"inputs":[{"components":[{"internalType":"address","name":"tokenIn","type":"address"},{"internalType":"address","name":"tokenOut","type":"address"},{"internalType":"uint256","name":"amountIn","type":"uint256"},{"internalType":"uint256","name":"minAmountOut","type":"uint256"},{"internalType":"address","name":"pool","type":"address"},{"internalType":"bytes","name":"swapData","type":"bytes"}],"internalType":"struct ISwapExecutor.SwapParams","name":"params","type":"tuple"}],"name":"executeSwap","outputs":[{"internalType":"uint256","name":"","type":"uint256"}],"stateMutability":"nonpayable","type":"function"},{"inputs":[{"internalType":"address","name":"tokenIn","type":"address"},{"internalType":"address","name":"tokenOut","type":"address"},{"internalType":"uint256","name":"amountIn","type":"uint256"},{"internalType":"address","name":"pool","type":"address"}],"name":"getAmountOut","outputs":[{"internalType":"uint256","name":"","type":"uint256"}],"stateMutability":"view","type":"function"},{"inputs":[{"internalType":"address","name":"tokenIn","type":"address"},{"internalType":"address","name":"tokenOut","type":"address"},{"internalType":"uint256","name":"rate","type":"uint256"}],"name":"setExchangeRate","outputs":[],"stateMutability":"nonpayable","type":"function"}]}